:0600000002017B02140363
:03000B0002140BD1
:03001300021413C1
:03001B0002141BB1
:03002300021423A1
:03002B0002142B91
:0300330002009335
:03003B0002143B71
:0300430002144361
:03004B0002024D61
:0300530002145341
:03005B0002145B31
:0300630002146321
:03006B0002146B11
:0300730002147301
:03007B0002147BF1
:03008300021483E1
:03008B0002148BD1
:10009300C0E0E5087005D0E0021433D0E00207C2E7
:0301E00002016EAB
:05016E0012026080FE9A
:0301D400750801AA
:2001E300AFC674BF5FF5C6E5BE30E6FBAFC674C05F4438F5C6743F55C6FFBF38F822AF8238
:20020300E4FEFDEF2FFF1FEF60118E041CECFE60F58D061EEEFD60F40080F822901400E065
:20022300FFBFFF047582002275820122C2AF759A0075B80075A80012021FE582600B1211D5
:20024300AE75080002140080FE2202144B90DF48E0FFBF6904758201227582002290DF46AF
:2002630074F0F090DF47740DF012118930A20A120250E582700312022F90DF48E4F0120159
:20028300E3121183120996D2AF1211A812119A90F00075F000120E0690F00075F000120C0A
:2002A300DFE582FF600302039590F00075F000120C91AE82BE0002801CBE0102802BBE228D
:2002C30002802BBE23028034BE2402803DBE2502805302038990F00075F000120E7C758278
:2002E3003012088112085980A612022F80A1120B8B7582301208811208598093120B95751C
:200303008230120881120859808575210090F00075F000120CBD120A0875823012088112C7
:20032300085902029290F00075F000120CA7AD82AE8375210090F00075F000C006C00512A1
:200343000CBDAB827C0075210190F00075F000C004C003120CBDAA82D003D0048A017A0072
:20036300E92CFCEA3BFB75820AC004C003120881D003D004D005D0068D828E838C2A8B2B48
:2003830012103202029275823412088112085902029274302FF582120881120859020292B3
:2003A30090DE077421F090DE097410F090DE0B7404F02290DE0EE4F090DE11E0FF30E10192
:2003C3002290F078E0FF90F07FF0EF24DF500690F07F7420F090F0807402F090F07FE0FE24
:2003E300BE2002800B90F080740AF090F074E4F090F078EFC39EF090F07FE0FF8F061FEEA1
:20040300602A90F075E0FCA3E0FDA3E0FE8C828D838EF01211FCFB90F07574012CF0E43D20
:20042300A3F0EEA3F090DE20EBF080D090DE0EE4F090F080E090DE11F022AE82AF838F0535
:2004430090F08174AAF07400A3F07480A3F090F081E0FBA3E0FCA3E0FF8B828C838FF01272
:2004630011FCFA700122C00274012BF8E43CF98F02888289838AF01211FCF8B505028004F4
:20048300D002803ED0028E011EE97036BD021774022BFBE43CFC8B828C838FF01211FCFB78
:2004A30090F078F0800590F078EAF090F081E0FBA3E0FCA3E0FF90F075EBF0ECA3F0EFA33C
:2004C300F02290F081E0FBA3E0FCA3E0FF8B828C838FF01211FCFA90F0812BF0E43CA3F0A7
:2004E300EFA3F002045190DE0EE4F090DE16E0FF90F084F090F07BE0FEC39F500590F084E5
:20050300EEF090F084E0FF90F07BEEC39FF08F061FEE602090F07CE0FDA3E0FE90DE20E0F2
:20052300FC8D828E83F090F07CE02401F0A3E03400F080DA22AF8290F078E0FE04F0EE248B
:2005430079F582E434F0F583EFF022AF8290F06B7401F090DE00034FF090DE00E0FF20E7A2
:20056300F82290DE0E7405F090DE107408F090DE12E0FF74014FF090DE0E7404F090DE1317
:2005830023F090DE157401F02290F07C746CF074F0A3F090F07B7408F01204E990F07BE037
:2005A300FF60012290F06CE0FF30E71A90F072E0FEA3E0FF4E600890F0747401F0801F902A
:2005C300F074E4F0801890F072E0FEA3E0FF4E600890F0747402F0800590F074E4F090DE2B
:2005E3000EE4F090F074E0FF700890DE117448F0800690DE117440F090F0757479F074F0C1
:20060300A3F0E4A3F090F078F090F06CE0FF74605FFE6009BE20030206DC02071053071F29
:20062300BF0002800FBF01030206A3BF02030206C502071090F06DE0FF6017BF05028021A5
:20064300BF0602802BBF08028038BF0902803F02071075820012053875820012053802076D
:200663001090F06EE0FEA3E08E8212054E02071090F06EE0FEA3E0FF8E828F8312043D02C5
:20068300071090F07EE0F58212053802071090F06EE0FEA3E090F07EEEF0120565020710C3
:2006A30090F06DE0FF6005BF0A63800E7582001205387582001205388053758200120538A7
:2006C300804B90F06DE0FF60028042758200120538758200120538803490F06DE0FFBF2071
:2006E300028005BF2127801290F07B7407F090F07C7400F07400A3F0801390F0787407F014
:2007030090F0757400F07400A3F0E4A3F090F074E0FFBF02012290F072E0FEA3E0FF90F076
:2007230078E0FD7C00C3EE9DEF9C500590F078EEF00203B690F06AE0FF20E0012290F06A50
:20074300E0FF74FE5FF090DE0EE4F090DE11E0FF30E40B90F074E4F090DE117480F0EF30DF
:20076300E20E90F074E4F090DE11E0FE74FB5EF090F074E0FEBE010BEF20E107C007120335
:20078300B6D007EF30E03790F074E0FF6005BF022D800302058C1204E990F07BE0FF700509
:2007A30090F074E4F090DE0EE4F090F074E0FF700790DE117448F02290DE117440F022C082
:2007C30020C0E0C0F0C082C083C007C006C005C004C003C002C001C000C0D075D000C2E886
:2007E30090DE02E0FF90F06AE04FF012073790DE06E0FF30E2031203A3D0D0D000D001D01D
:2008030002D003D004D005D006D007D083D082D0F0D0E0D0203290DE0E7405F090DE11E02F
:20082300FF30E00A90F06AE0FF20E5EA80F62290DE0E7405F090DE11E0FF74014FF090F0D5
:2008430064E0FEA3E0FF90F066EEF0EFA3F090F064E4F0A3F02290F06BE0FF70012290F041
:2008630064E0FEA3E0FF4E700E90F066E0FEA3E0FFBE4009BF000612081902083222AF8211
:2008830090F06BE0FE700122C007120819D00790DE2AEFF090F064E02401F0A3E03400F031
:2008A30090F064E0FEA3E0FFBE4006BF00030208322290F068E0FEA3E0FF4E704490DE0E07
:2008C3007404F090DE14E0FF20E0047582FF2290DE17E0FE7F0090DE16E0FD7C004207EC3C
:2008E300420690F068EFF0EEA3F0EF4E701390DE0E7404F090DE14E0FF74FE5FF07582FFA9
:200903002290F068E024FFFEA3E034FFFF90F068EEF0EFA3F090DE28E0FF90F068E0FDA3EF
:20092300E0FE4D700F90DE0E7404F090DE14E0FE74FE5EF08F82221208B5AF828F06BFFF80
:200943000A90DE04E0FF20E4EE80F68E822243BE801205651203A3439A0290DE06E4F09033
:20096300DE04F090DE02F0C2E82290DE07E4F090DE09F090DE0BF0AF9A74FD5FF59A90DE47
:2009830006E4F090DE04F090DE02F0AFBE747F5FF5BE2290F074E4F090F06AF0020951AD79
:2009A30082AE83AFF0C007C006C00512093AAC82D005D006D0078C03BC0A0280118D828E06
:2009C300838FF0EB1211B8A3AD82AE8380D78D828E838FF0E40211B8AD82AE83AFF08D8296
:2009E3008E838FF01211FCFC60188C820DBD00010EC007C006C005120881D005D006D0077B
:050A030080DC0208592F
:0712610000C20100000008BB
:0901D700E4F509F50AF50BF50C3D
:200A0800AF82BF0500500122E5AE20E7FB8FF005F07B017C007D007E00800CEB2BFBEC33AE
:200A2800FCED33FDEE33FED5F0F1EB4209EC420AED420BEE420C75AB1FEF2FF5AD75AC00BC
:0A0A480043AE0100E5AE20E7FB22FB
:080173000043AE0200020A5530
:200A520002017422AD82AE838E0790F085EFF090F086EDF090F08774DFF090F08874AFF0CA
:200A720090F089E4F0E0FFE50D250DE50E33FD53051FEF420590F089EDF0E50D25E090F057
:200A92008AF090F08B7412F090F08C7442F07E857FF08F068ED57E857FF07F008ED4E5AE47
:200AB20020E7FB75AB1FE510C313FE53063F8EADAE0FE510C313CE13CE8EAC43D601120AA0
:200AD20052E5D1FF30E0FAE5AE54C0600280F8AFD174FE5FF5D122AF828FF005F07F017E96
:200AF200007D007C00800CEF2FFFEE33FEED33FDEC33FCD5F0F1E5095207E50A5206E50BB7
:200B12005205E50C5204EF4E4D4C60047582012275820022AF82C007120AE9E582D007700D
:200B3200058F82020A0822AD82AE83AFF0E5140303543FFBE5112513E51235140303543FC4
:200B5200FA7C00C3EA9B401C8B82C007C006C005C003C002120B26D002D003D005D006D022
:200B7200070B80DF85110D85120E85130F8514108D828E838FF0020A56E4F509F50AF50B78
:1D0B9200F50C227F058F82C007120A08D0070F8F057E00C3ED9420EE940040E9227A
:200BAF00AF82C3EF648094B0401174B98FF063F08095F04006EF24D0F58222C3EF648094DA
:200BCF00C1401374C68FF063F08095F04008EF24BF240AF58222C3EF648094E1401374E648
:200BEF008FF063F08095F04008EF249F240AF582227582FF22AD82AE83AFF074012DFAE4B7
:200C0F003EFB8F048A828B838CF01211FCF582C007C006C005120BAFAC82D005D006D007FF
:200C2F008D828E838FF01211FCF582C004120BAFAF82D004EFC454F02CF58222AD82AE83BF
:200C4F00AFF074022DFAE43EFB8F048A828B838CF0C007C006C005120C04AC82D005D006B6
:200C6F00D0077B008D828E838FF0C004C003120C04AF82D003D0048F06E42CF582EE3BF5B9
:200C8F008322AD82AE83AFF074072DFDE43EFE8D828E838FF0020C04AD82AE83AFF07403B5
:200CAF002DFDE43EFE8D828E838FF0020C4BAD82AE83AFF0E52175F002A42409FBE435F0A2
:200CCF00FCEB2DFDEC3EFE8D828E838FF0020C04AD82AE83AFF01211FCFCBC3A0280047510
:200CEF0082012274012DFAE43EFB8F048A828B838CF0C007C006C005120C04858222D005EC
:200D0F00D006D0078D828E838FF0C007C006C005120CA7AA82AB83D005D006D0078D828EE8
:200D2F00838FF0C007C006C005C003C002120C91A982D002D003D005D006D007E52224EFB0
:200D4F005004758205228522218D828E838FF0C007C006C005C003C002C001120CBDD00167
:200D6F00D002D003D005D006D007E924FE500EB922004005E924DA500475820422E97011F2
:200D8F0074EC2B5008C3E49A74809B5004758203227523007A00A8227900740528F8E43916
:200DAF00F98A037C00C3EB98EC648089F063F08095F05037EA75F002A42401FBE435F0FC9A
:200DCF00EB2DFBEC3EF98F048B8289838CF0C007C006C005C002120C04AC82D002D005D0CB
:200DEF0006D007EC2523F5230A80ABE52360047582022275820022AD82AE83AFF0C007C060
:200E0F0006C00512093AAC82D005D006D007BC3AEC8D828E838FF0743A1211B87C01BC2D83
:200E2F00005033C007C006C005C00412093AAB82D004D005D006D0078B02BB0A0280178CBB
:200E4F00030CEB2DF8E43EF98F03888289838BF0EA1211B880C87B000CBC00010BEC2DFDB4
:200E6F00EB3EFE8D828E838FF0E40211B8AD82AE83AFF074012DFAE43EFB8F048A828B8389
:200E8F008CF0C007C006C005120C04858224D005D006D0078D828E838FF0C007C006C005B5
:200EAF00120CA7858225858326D005D006D0078D828E838FF0C007C006C005120C91A982B7
:200ECF00D005D006D007B9000280012290F08D74FFF07900C3E995245039E904F8248DFABC
:200EEF00E434F0FB89218D828E838FF0C007C006C005C003C002C000120CBDAC82D000D057
:200F0F0002D003D005D006D0078A828B83ECF0880180C1E52404248DF582E434F0F5837482
:200F2F00FFF0E52530E02DAC247F008C828F83A3A37515028F16121218858211858312E533
:200F4F002524FFF513E52634FFF51490F08D75F000020B39AC247F008C828F83A375150295
:200F6F008F1612121885821185831285251385261490F08E75F000020B39E582FF24F6405A
:200F8F00088F0674302EF58222EF24F0400674372FF5822275822122AD82AE83AFF07401D0
:200FAF002DFAE43EFB8F04740F5527F582C007C006C005C004C003C002120F89A982D00293
:200FCF00D003D0048A828B838CF0E91211B8E527C4540FFC740F5CF582120F89AC82D005CF
:200FEF00D006D0078D828E838FF0EC0211B8AD82AE83AFF074022DFAE43EFB8F04A828883B
:20100F00278A828B838CF0C007C006C005120FA7D005D006D007AC298C278D828E838FF041
:20102F00020FA7AE82AF83E52A452B700302117A7D00C37410952AE4952B50047C1080027F
:20104F00AC2A90F0CE743AF08C2790F0CF75F000C007C006C005C004120FA7D004D005D001
:20106F0006D007EC2DFD8E028F038A288B2990F0D175F000C007C006C005C004C003C00295
:20108F00120FFDD002D003D004D0058A007900E82DFD8B028D03EA2BFD892790F0D575F027
:2010AF0000C005C004120FA7D004D005D006D0077B00C3EB9C503DEB2EF582E43FF583E01D
:2010CF00F52C2DFDEB2B240924CEF8E434F0F97A00852C27888289838AF0C007C006C00554
:2010EF00C004C003120FA7D003D004D005D006D0070B80BEEB2BFB240924CEFAE434F0F9F5
:20110F007C00C3E49DFD8D278A8289838CF0C007C006C003120FA7D003740B2B24CEF582BD
:20112F00E434F0F583740AF0740C2B24CEF582E434F0F583E4F090F0CE75F0001209DBD0D1
:20114F0006D007C37410952AE4952B501674102EFEE43FFFE52A24F0F52AE52B34FFF52B1C
:14116F00021036E4F52AF52B02103690125475F0800209DBF8
:0D1254003A303030303030303146460A003C
:2011830043FE0E0211A1AFFF74FB5FF5FF43FF19C2A0C2A4D2A322D291D292D29322C2917E
:1511A300C292C2932243FE01D29022C290AFFE74FE5FF5FE22C1
:2000AA001201100102000020501D5C6010000102030109024300020100C03209040000015F
:2000CA0002020100052400100105240101010424020205240600010705810308000A0904A0
:2000EA000100020A0000000705040240000007058502400000040309042803470072006567
:20010A0000610074002000530063006F0074007400200047006100640067006500740073F4
:20012A000034035900410052004400200053007400690063006B0020004F006E00650020CE
:20014A000042006F006F0074006C006F0061006400650072000E0330003000300030003089
:04016A000031000060
:0601AA00E478FFF6D8FD29
:200188007907E94400601B7A019012617800759300E493F2A308B800020593D9F4DAF275BD
:0201A80093FFC3
:1B11B80020F71130F6138883A88220F509F6A8837583002280FEF280F5F02236
:2011D3007A10E4FBFCE58225E0F582E58333F583EB33FBEC33FCEB9515F5F0EC9516400616
:0911F300FCABF0438201DADD22BD
:2001B0007800E84400600A79007593F0E4F309D8FC78FBE84400600C790190F000E4F0A380
:0401D000D8FCD9FA84
:0D017B0075812C121250E582600302016EA6
:1C11FC0020F71430F6148883A88220F507E6A88375830022E280F7E49322E02202
:20121800C2D5E58330E70DD2D5E4C39582F582E49583F583E51630E70DB2D5E4C39515F557
:1812380015E49516F5161211D330D50BE4C39582F582E49583F583221E
:041250007582002281
:00000001FF
