:0600000002014B02140393
:03000B0002140BD1
:03001300021413C1
:03001B0002141BB1
:03002300021423A1
:03002B0002142B91
:0300330002009335
:03003B0002143B71
:0300430002144361
:03004B000202238B
:0300530002145341
:03005B0002145B31
:0300630002146321
:03006B0002146B11
:0300730002147301
:03007B0002147BF1
:03008300021483E1
:03008B0002148BD1
:0B009300C0E0E5087005D0E002143367
:05009E00D0E00207AEF6
:0301B00002013E0B
:05013E0012023680FEF4
:0301A400750801DA
:0301B30053C6BF71
:0E01B600E5BE30E6FBAAC674C05AF5F07438F8
:0401C40045F0F5C647
:0901C800743F55C6FABA38F8225A
:0801D100AA82E4FBFCEA2AFA11
:0601D9001AEA60118B051B
:0701DF001DEDFB60F58C0330
:0801E6001BEBFC60F40080F843
:0101EE0022EE
:0C01EF00901400E0FABAFF0475820022B0
:0401FB0075820122E6
:0E01FF00C2AF759A0075B80075A8001201EF26
:07020D00E5827003020222EA
:0702140012112712095475B5
:05021B000800021400C0
:0202200080FE5E
:0102220022B9
:0302230002144B77
:0C02260090DF48E0FABA690475820122FA
:0402320075820022AF
:0D02360090DF4674F0F090DF47740DF01279
:0E024300111730920D30A20A120226E58270C9
:04025100031201FF94
:0C02550090DF48E4F01201B31211111206
:080261000975D2AF1211211240
:02026900111B67
:0A026B0090F00075F000120DE19014
:0E027500F00075F000120CBAE582FA60030288
:020283000384F2
:0E02850090F00075F000120C6CAB82BB000212
:02029300801CCD
:05029500BB0102802BFB
:05029A00BB2202802BD5
:05029F00BB23028034C6
:0502A400BB2402803DB7
:0502A900BB250280539B
:0302AE00020378D0
:0D02B10090F00075F000120E5775823012AB
:0702BE00086B12084380A643
:0502C5001201FF80A101
:0A02CA00120B6675823012086B12E9
:0402D40008438093C8
:0A02D800120B7075823012086B12D1
:0402E20008438085C8
:0A02E60075210090F00075F0001281
:0902F0000C981209EA7582301223
:0602F900086B120843022D
:0202FF00026B90
:0E03010090F00075F000120C82AB82AC837598
:0C030F00210090F00075F000C003C00455
:0B031B00120C98AD827E00752101904D
:0E032600F00075F000C005C006120C98AF8202
:0E033400D006D005D004D003780074082FFF47
:09034200E438F88FF005F08006A4
:06034B00ED2DFDEE33FE76
:0E035100D5F0F775820AC003C004C005C006CF
:0E035F0012086BD006D005D004D0038B828C20
:06036D00838D2A8E2B1285
:05037300100C02026BFA
:0A03780075823412086B120843026C
:02038200026B0C
:0C03840074302AF58212086B1208430244
:02039000026BFE
:0D03920090DE077421F090DE097410F090E9
:06039F00DE0B7404F022E5
:0E03A50090DE0EE4F090DE11E0FA30E101226D
:0E03B30090F078E0FA90F07FF0EA24DF500638
:0603C10090F07F7420F0B3
:0E03C70090F0807402F090F07FE0FBBB20020B
:0203D500800B9B
:0B03D70090F080740AF090F074E4F0E5
:0E03E20090F07FE0FB90F078EAC39BF08B0276
:0E03F0008A031AEB602A90F075E0FBA3E0FC94
:0E03FE00A3E0FD8B828C838DF012116FFE90B8
:0E040C00F07574012BF0E43CA3F0A3EDF0902A
:06041A00DE20EEF080D0B0
:0E04200090DE0EE4F090F080E090DE11F0220D
:0C042E00AA82AB838B0490F08174AAF0CA
:08043A00A37400F0A37480F02C
:0E04420090F081E0FBA3E0FDA3E0FE8B828D35
:0A045000838EF012116FFF7001227D
:0E045A00C00774012BF8E43DF98E07888289F3
:0C046800838FF012116FF8B504028004BD
:04047400D007803EEF
:0E047800D0078A001AE87036BC021774022BF7
:0E048600FBE43DFD8B828D838EF012116FFB27
:0604940090F078F08005F5
:05049A0090F078EFF086
:0E049F0090F081E0FBA3E0FDA3E0FE90F0757D
:0904AD00EBF0A3EDF0A3EEF02248
:0E04B60090F081E0FBA3E0FDA3E0FE8B828DC1
:0E04C400838EF012116FFF90F081EF2BF0E4A9
:0904D2003DA3F0A3EEF002044288
:0E04DB0090DE0EE4F090DE16E0FA90F084F071
:0E04E90090F07BE0FBC39A500590F084EBF09E
:0C04F70090F084E0FA90F07BEBC39AF0E8
:0E0503008A031AEB601F90F07CE0FBA3E0FC83
:0E05110090DE20E0FD8B828C83F090F07C74F5
:09051F00012BF0E43CA3F080DBA9
:0105280022B0
:0E052900AA8290F078E0FB90F07804F0EB24CA
:0A05370079F582E434F0F583EAF070
:010541002297
:0E054200AA8290F06B7401F090DE0074804A83
:01055000F0BA
:0905510090DE00E0FA20E7F82238
:0D055A0090DE0E7405F090DE107408F09035
:0D056700DE12E04401F090DE0E7404F0900E
:0C057400DE137408F090DE157401F02214
:0805800090F07C746CF0A37490
:09058800F0F090F07B7408F01211
:0A05910004DB90F07BE0FA60012229
:0E059B0090F06CE0FA30E71A90F072E0FBA3EB
:0D05A900E0FC4B600890F0747401F0801FBE
:0705B60090F074E4F08018DE
:0E05BD0090F072E0FBA3E0FC4B600890F0743D
:0505CB007402F0800540
:0505D00090F074E4F05E
:0D05D50090DE0EE4F090F074E0FB700890F2
:0705E200DE117448F08006F1
:0605E90090DE117440F0E9
:0805EF0090F0757479F0A3741B
:0C05F700F0F0A3E4F090F078F074605A8B
:09060300FB6009BB20030206CBD9
:03060C000206FFE4
:08060F0053021FBA0002800F24
:06061700BA010302069285
:06061D00BA02030206B45C
:030623000206FFCD
:0C06260090F06DE0FA6017BA0502802128
:05063200BA0602802B56
:05063700BA0802803842
:05063C00BA0902803F35
:030641000206FFAF
:0D0644007582001205297582001205290239
:0206510006FFA2
:0D06530090F06EE0FAA3E08A8212054202E8
:0206600006FF93
:0D06620090F06EE0FAA3E0FB8A828B831219
:05066F00042E0206FF4D
:0A06740090F07EE0F58212052902E5
:02067E0006FF75
:0D06800090F06EE0FAA3E090F07EEAF01238
:05068D00055A0206FF02
:0C06920090F06DE0FA6005BA0A63800E7B
:0E069E0075820012052975820012052980530D
:0806AC00758200120529804B44
:0906B40090F06DE0FA6002804252
:0E06BD0075820012052975820012052980340D
:0A06CB0090F06DE0FABA20028005FD
:0506D500BA212780128C
:0A06DA0090F07B7407F090F07C7440
:0806E40000F0A37400F0801384
:0A06EC0090F0787407F090F0757438
:0906F60000F0A37400F0A3E4F08D
:0906FF0090F074E0FABA02012245
:0E07080090F072E0FAA3E0FB90F078E0FC7D48
:0D07160000C3EA9CEB9D500590F078EAF0DE
:030723000203A529
:0907260090F06AE0FA20E00122E3
:0D072F0090F06AE054FEF090DE0EE4F090D1
:0D073C00DE11E0FA30E40B90F074E4F09070
:05074900DE117480F0D8
:0E074E00EA30E20D90F074E4F090DE11E0FB72
:03075C0054FBF05B
:0E075F0090F074E0FBBB010BEA20E107C00242
:05076D001203A5D002FB
:0E077200EA30E03790F074E0FA6005BA022D2C
:020780008003F4
:03078200020580ED
:0B0785001204DB90F07BE0FA7005909E
:04079000F074E4F02D
:0D07940090DE0EE4F090F074E0FA70079033
:0607A100DE117448F02295
:0607A70090DE117440F029
:0107AD002229
:0C07AE00C020C0E0C0F0C082C083C002C8
:0E07BA00C003C004C005C006C007C000C001D7
:0D07C800C0D075D000C2E890DE02E0FA90CB
:0E07D500F06AE04AF012072690DE06E0FA30E5
:0507E300E20312039285
:0E07E800D0D0D001D000D007D006D005D0046C
:0D07F600D003D002D083D082D0F0D0E0D06C
:020803002032A1
:0E08050090DE0E7405F090DE11E0FA30E00A8D
:0A08130090F06AE0FA20E5EA80F6B2
:01081D0022B8
:0E081E0090DE0E7405F090DE11E04401F090C3
:0E082C00F064E0FAA3E0FB90F066EAF0A3EBC4
:09083A00F090F064E4F0A3F02258
:0808430090F06BE0FA70012255
:0E084B0090F064E0FAA3E0FB4A700E90F066B5
:0B085900E0FAA3E0FBBA4009BB000678
:0608640012080502081E47
:01086A00226B
:0A086B00AA8290F06BE0FB700122FE
:0D087500C002120805D00290DE2AEAF090C1
:0E088200F064E02401F0A3E03400F090F06494
:0E089000E0FAA3E0FBBA4006BB000302081E1C
:01089E002237
:0E089F0090F068E0FAA3E0FB4A704290DE0E93
:0E08AD007404F090DE14E0FA20E0047582FF7F
:0108BB00221A
:0E08BC0090DE17E0FB7A0090DE16E0FC7D0077
:0E08CA004202ED420390F068EAF0A3EBF0EA80
:0E08D8004B701190DE0E7404F090DE14E054AC
:0608E600FEF07582FF2206
:0D08EC0090F068E024FFFAA3E034FFFB90D9
:0D08F900F068EAF0A3EBF090DE28E0FA9042
:0E090600F068E0FBA3E0FC4B700E90DE0E7478
:0A09140004F090DE14E0FB54FEF046
:03091E008A8222A8
:0A09210012089FAA828A03BAFF0A97
:0A092B0090DE04E0FA20E4EE80F60E
:030935008B822290
:0D09380043BE8012055A120392439A0290AA
:0E094500DE06E4F090DE04F090DE02F0C2E880
:010953002281
:0E09540090DE07E4F090DE09F090DE0BF05329
:0E0962009AFD90DE06E4F090DE04F090DE02D6
:05097000F053BE7F22E0
:0909750012095490F074E4F090B2
:06097E00F06AF0020938E6
:06098400AA82AB83ACF077
:0E098A00C002C003C004120921AD82D004D007
:0A09980003D0028D06BD0A02801193
:0E09A2008A828B838CF0EE12112DA3AA82ABF9
:0309B0008380D76A
:0A09B3008A828B838CF0E402112D80
:0609BD00AA82AB83ACF03E
:0E09C3008A828B838CF012116FFD60188D827A
:0509D1000ABA00010B51
:0E09D600C002C003C00412086BD004D003D0CE
:0309E4000280DCB2
:0309E700020843C0
:0711D40000C2010000000849
:0601A700E4F509F50AF57C
:0301AD000BF50C43
:0509EA00AA82BA05001D
:0309EF0050012292
:0E09F200E5AE20E7FB8AF005F07B017C007D7E
:050A0000007E00800CE7
:0C0A0500EB2BFBEC33FCED33FDEE33FE7D
:0A0A1100D5F0F1EB4209EC420AEDCA
:0A0A1B00420BEE420C75AB1FEA2AF5
:090A2500F5AD75AC0043AE010013
:060A2E00E5AE20E7FB220B
:0101430000BB
:0701440043AE0200020A377E
:030A340002014478
:010A3700229C
:0E0A3800AA82AB838B0490F085ECF090F086E0
:0E0A4600EAF090F08774DFF090F08874AFF063
:0A0A540090F089E4F0E0FAE50D25CA
:0A0A5E000DE50E33FCFB741F5B4234
:0B0A68000290F089EAF0E50D25E09017
:0A0A7300F08AF090F08B7412F090FE
:080A7D00F08C7442F07A857BD5
:060A8500F08BD57A857BA1
:050A8B00F07B008AD49D
:0C0A9000E5AE20E7FB75AB1FE510C313BB
:0A0A9C00FA53023F8AADAA0FE510DD
:0D0AA600C313CA13CA8AAC43D601120A3426
:050AB300E5D130E0FB7D
:080AB800E5AE54C0600280F8B5
:040AC00053D1FE22EE
:0E0AC400AA828AF005F07A017B007C007D009A
:020AD200800C96
:0C0AD400EA2AFAEB33FBEC33FCED33FDB7
:0A0AE000D5F0F1E5095202E50A52D3
:0A0AEA0003E50B5204E50C5205EA87
:090AF4004B4C4D60047582012297
:040AFD0075820022DC
:0E0B0100AA82C002120AC4E582D00270058AE0
:040B0F00820209EA6B
:010B130022BF
:0C0B1400AA82AB83ACF0E5140303543F4D
:060B2000FDE5112513E5BF
:0A0B26001235140303543FFE7F0054
:0E0B3000C3EE9D401C8D82C002C003C004C0F5
:0E0B3E0005C006120B01D006D005D004D0036E
:050B4C00D0020D80DF66
:040B510085110D8578
:030B5500120E85F8
:030B5800130F85F3
:090B5B0014108A828B838CF002D5
:020B64000A384D
:060B6600E4F509F50AF5B3
:040B6C000BF50C2257
:020B70007A0504
:0E0B72008A037C00C3EB9420EC9400500C8AA4
:0B0B800082C0021209EAD0020A80E7DE
:010B8B002247
:0E0B8C00AA82C3EA648094B0401174B98AF062
:0D0B9A0063F08095F04006EA24D0F5822239
:0E0BA700C3EA648094C1401174C68AF063F002
:0B0BB5008095F04006EA24C9F582227A
:0E0BC000C3EA648094E1401174E68AF063F0A9
:0B0BCE008095F04006EA24A9F5822281
:040BD9007582FF2200
:0E0BDD00AA82AB83ACF074012AFDE43BFE8CCF
:0E0BEB00078D828E838FF012116FF582C0028B
:0E0BF900C003C004120B8CAD82D004D003D018
:0E0C0700028A828B838CF012116FF582C00579
:0E0C1500120B8CAA82D005EAC454F02DF58291
:010C230022AE
:0E0C2400AA82AB83ACF074022AFDE43BFE8C86
:0E0C3200078D828E838FF0C002C003C00412B3
:0E0C40000BDDAD82D004D003D0027E008A828C
:0E0C4E008B838CF0C005C006120BDDAA82D08D
:0E0C5C0006D0058A037A00EA2DF582EB3EF5FC
:020C6A008322E3
:0E0C6C00AA82AB83ACF074072AFAE43BFB8A41
:080C7A00828B838CF0020BDD7C
:0E0C8200AA82AB83ACF074032AFAE43BFB8A2F
:080C9000828B838CF0020C241E
:0C0C9800AA82AB83ACF0E52175F002A449
:0E0CA4002409FDE435F0FEED2AFAEE3BFB8A52
:080CB200828B838CF0020BDD44
:0E0CBA00AA82AB83ACF012116FFDBD3A02802E
:010CC8000427
:040CC900758201220D
:0E0CCD0074012AFDE43BFE8C078D828E838F1E
:0C0CDB00F0C002C003C004120BDD8582D3
:0C0CE70022D004D003D0028A828B838CC0
:0E0CF300F0C002C003C004120C82AE82AF83B8
:0E0D0100D004D003D0028A828B838CF0C00213
:0E0D0F00C003C004C006C007120C6CA882D03E
:0C0D1D0007D006D004D003D002E5222449
:070D2900EF50047582052262
:0A0D30008522218A828B838CF0C09B
:0E0D3A0002C003C004C006C007C000120C981F
:0E0D4800D000D007D006D004D003D002E8249B
:060D5600FE500EB8220061
:070D5C004005E824DA500411
:040D6300758204226F
:0E0D6700E8701174EC2F5008C3E49E74809F56
:020D7500500428
:040D7700758203225C
:050D7B007523007F005C
:0C0D8000A8227900740528F8E439F98FE6
:0E0D8C00067D00C3EE98ED648089F063F08070
:0E0D9A0095F05037EF75F002A42401FDE4350A
:0E0DA800F0FEED2AFDEE3BFE8C008D828E8368
:0E0DB60088F0C002C003C004C007120BDDAD00
:0C0DC40082D007D004D003D002ED25231C
:050DD000F5230F80ABCC
:080DD500E5236004758202228F
:040DDD0075820022F9
:060DE100AA82AB83ACF016
:0E0DE700C002C003C004120921AD82D004D0A6
:0E0DF50003D002BD3AEC8A828B838CF0743AF4
:050E030012112D7D011C
:030E0800BD2D00FD
:0E0E0B005033C002C003C004C005120921AE5E
:0E0E190082D005D004D003D0028E07BE0A029C
:020E2700801732
:0E0E29008D060DEE2AFEE43BF88C018E8288C9
:090E37008389F0EF12112D80C82F
:070E40007E000DBD00010E54
:0E0E4700ED2AFAEE3BFB8A828B838CF0E402EC
:020E5500112D5D
:0E0E5700AA82AB83ACF074012AFDE43BFE8C52
:0E0E6500078D828E838FF0C002C003C004127E
:0C0E73000BDD858224D004D003D0028A5D
:0E0E7F00828B838CF0C002C003C004120C8270
:0A0E8D00858225858326D004D0035A
:0E0E9700D0028A828B838CF0C002C003C0049C
:0E0EA500120C6CA882D004D003D002B8000258
:020EB3008001BC
:010EB500221A
:080EB60090F08D74FFF078004C
:0A0EBE00C3E895245039E804F92434
:070EC8008DFEE434F0FF8809
:0C0ECF00218A828B838CF0C002C003C01B
:0E0EDB0004C006C007C001120C98AD82D00101
:0E0EE900D007D006D004D003D0028E828F83B3
:060EF700EDF0890080C14E
:090EFD00E52404248DF582E4349F
:0A0F0600F0F58374FFF0E52530E0FC
:0C0F10002EAD247A008D828A83A3A37585
:060F1C001502E4F51612B7
:070F2200118B85821185830C
:060F290012E52524FFF58E
:060F2F0013E52634FFF576
:080F35001490F08D75F000022C
:020F3D000B1493
:0A0F3F00AD247A008D828A83A37529
:060F49001502E4F516128A
:070F4F00118B8582118583DF
:030F5600128525DC
:030F5900138526D7
:080F5C001490F08E75F0000204
:020F64000B146C
:0D0F6600E582FA24F6400674302AF5822256
:0B0F7300EA24F0400674372AF58222C1
:040F7E007582212235
:0E0F8200AA82AB83ACF074012AFDE43BFE8C26
:0C0F900007740F5527F582C002C003C093
:0E0F9C0004C005C006C007120F66A882D00769
:0E0FAA00D006D0058D828E838FF0E812112DB7
:0C0FB800E527C4540FFD740F5DF5821294
:0E0FC4000F66AD82D004D003D0028A828B83E8
:060FD2008CF0ED02112D70
:0E0FD800AA82AB83ACF074022AFDE43BFE8CCF
:0A0FE60007A82888278D828E838FCC
:0E0FF000F0C002C003C004120F82D004D00370
:0A0FFE00D0028529278A828B838C9C
:04100800F0020F8261
:08100C00AA82AB83AC2AAD2BD4
:0C101400C3EC9410ED940050030211088E
:0A10200090F0CE743AF0752710909E
:0E102A00F0CF75F000C002C003C004C0051274
:0E1038000F82D005D004D003D0028A068B07A9
:051046008E288F2990A7
:0E104B00F0D175F000C002C003C004C005C0A3
:0E10590006C007120FD8D007D0068E00741004
:08106700282FF52D75270090DC
:0E106F00F0D575F000120F82D005D004D0032A
:04107D00D0027E001F
:03108100BE10009E
:0C108400503DEE2AF582E43BF583E0F5D8
:041090002C252DF5E9
:081094002DEE2E24D7F9E434FF
:06109C00F0FF7800852C36
:0C10A2002789828F8388F0C002C003C041
:0E10AE0004C005C006120F82D006D005D00483
:0710BC00D003D0020E80BE3C
:0710C300C3E4952DF5279011
:0E10CA00F0F775F000C002C003C004C00512AC
:0910D8000F8290F0F9740AF09007
:0B10E100F0FAE4F090F0CE75F0001281
:0E10EC0009BDD005D004D003D00274102AFA3A
:0E10FA00E43BFBEC24F0FCED34FFFD0210148F
:091108009011C775F0800209BDC9
:0D11C7003A303030303030303146460A00CA
:0611110043FE01C2902222
:0411170053FFFB2265
:03111B00D290224D
:03111E00C290225A
:0611210043FE02D2912200
:06112700C29153FEFD22FF
:0E00AA001201100102000020FEFF0A001000EB
:0E00B8000102030109024300020100C03209E7
:0E00C6000400000102020100052400100105E3
:0E00D400240101010424020205240600010794
:0E00E20005810308000A09040100020A00005B
:0E00F0000007050402400000070585024000DD
:0E00FE00000403090410034A006F0062007939
:0E010C00004700500053001C03430043002036
:0E011A000042006F006F0074006C006F006107
:0E012800006400650072000E033000300030ED
:08013600003000300031000030
:06017A00E478FFF6D8FD59
:080158007907E94400601B7AFD
:05016000019011D478AC
:030165000075938F
:0A01680000E493F2A308B8000205BA
:0801720093D9F4DAF27593FF52
:0E112D0020F71030F6118883A88220F507F60F
:05113B00A8837583008C
:01114000228C
:03114100F280F742
:02114400F02297
:051146007A10E4FBFC3F
:0E114B00E58225E0F582E58333F583EB33FB87
:0A115900EC33FCEB9515F5F0EC9576
:09116300164006FCABF0438201CA
:03116C00DADD22A7
:080180007800E84400600A79F0
:030188000075936C
:06018B00F0E4F309D8FCCA
:0801910078FBE84400600C79E2
:0B0199000190F000E4F0A3D8FCD9FABC
:03014B0075812D8E
:0A014E001211C3E582600302013EB6
:0E116F0020F71430F6148883A88220F507E6D6
:06117D00A8837583002227
:03118300E280F710
:03118600E49322CD
:02118900E02262
:0E118B00C2D5E58330E70DD2D5E4C39582F5D9
:0611990082E49583F5835A
:0A119F00E51630E70DB2D5E4C39564
:0511A90015F515E495A9
:0311AE0016F5161D
:0E11B10012114630D50BE4C39582F582E49509
:0311BF0083F58332
:0111C200220A
:0411C300758200220F
:00000001FF
