:0600000002017B02140363
:03000B0002140BD1
:03001300021413C1
:03001B0002141BB1
:03002300021423A1
:03002B0002142B91
:0300330002009335
:03003B0002143B71
:0300430002144361
:03004B0002024D61
:0300530002145341
:03005B0002145B31
:0300630002146321
:03006B0002146B11
:0300730002147301
:03007B0002147BF1
:03008300021483E1
:03008B0002148BD1
:10009300C0E0E5087005D0E0021433D0E00207B8F1
:0301E00002016EAB
:05016E0012026080FE9A
:0301D400750801AA
:2001E300AFC674BF5FF5C6E5BE30E6FBAFC674C05F4438F5C6743F55C6FFBF38F822AF8238
:20020300E4FEFDEF2FFF1FEF60118E041CECFE60F58D061EEEFD60F40080F822901400E065
:20022300FFBFFF047582002275820122C2AF759A0075B80075A80012021FE582600B1211D5
:20024300A475080002140080FE2202144B90DF48E0FFBF6904758201227582002290DF46B9
:2002630074F0F090DF47740DF012117F12022F90DF48E4F01201E312117912098CD2AF12C4
:20028300119E12119090F00075F000120DFC90F00075F000120CD5E582FF600302038B9038
:2002A300F00075F000120C87AE82BE0002801CBE0102802BBE2202802BBE23028034BE2443
:2002C30002803DBE2502805302037F90F00075F000120E7275823012087712084F80A61250
:2002E300022F80A1120B8175823012087712084F8093120B8B75823012087712084F808509
:2003030075210090F00075F000120CB31209FE75823012087712084F02028890F00075F0E3
:2003230000120C9DAD82AE8375210090F00075F000C006C005120CB3AB827C0075210190F8
:20034300F00075F000C004C003120CB3AA82D003D0048A017A00E92CFCEA3BFB75820AC023
:2003630004C003120877D003D004D005D0068D828E838C2A8B2B1210280202887582341231
:16038300087712084F02028874302FF58212087712084F02028820
:2003990090DE077421F090DE097410F090DE0B7404F02290DE0EE4F090DE11E0FF30E1019C
:2003B9002290F078E0FF90F07FF0EF24DF500690F07F7420F090F0807402F090F07FE0FE2E
:2003D900BE2002800B90F080740AF090F074E4F090F078EFC39EF090F07FE0FF8F061FEEAB
:2003F900602A90F075E0FCA3E0FDA3E0FE8C828D838EF01211F2FB90F07574012CF0E43D35
:20041900A3F0EEA3F090DE20EBF080D090DE0EE4F090F080E090DE11F022AE82AF838F053F
:2004390090F08174AAF07400A3F07480A3F090F081E0FBA3E0FCA3E0FF8B828C838FF0127C
:2004590011F2FA700122C00274012BF8E43CF98F02888289838AF01211F2F8B50502800412
:20047900D002803ED0028E011EE97036BD021774022BFBE43CFC8B828C838FF01211F2FB8C
:2004990090F078F0800590F078EAF090F081E0FBA3E0FCA3E0FF90F075EBF0ECA3F0EFA346
:2004B900F02290F081E0FBA3E0FCA3E0FF8B828C838FF01211F2FA90F0812BF0E43CA3F0BB
:2004D900EFA3F002044790DE0EE4F090DE16E0FF90F084F090F07BE0FEC39F500590F084F9
:2004F900EEF090F084E0FF90F07BEEC39FF08F061FEE602090F07CE0FDA3E0FE90DE20E0FD
:20051900FC8D828E83F090F07CE02401F0A3E03400F080DA22AF8290F078E0FE04F0EE2495
:2005390079F582E434F0F583EFF022AF8290F06B7401F090DE00034FF090DE00E0FF20E7AC
:20055900F82290DE0E7405F090DE107408F090DE12E0FF74014FF090DE0E7404F090DE1321
:2005790023F090DE157401F02290F07C746CF074F0A3F090F07B7408F01204DF90F07BE04B
:20059900FF60012290F06CE0FF30E71A90F072E0FEA3E0FF4E600890F0747401F0801F9034
:2005B900F074E4F0801890F072E0FEA3E0FF4E600890F0747402F0800590F074E4F090DE35
:2005D9000EE4F090F074E0FF700890DE117448F0800690DE117440F090F0757479F074F0CB
:2005F900A3F0E4A3F090F078F090F06CE0FF74605FFE6009BE20030206D202070653071F48
:20061900BF0002800FBF0103020699BF02030206BB02070690F06DE0FF6017BF05028021CD
:20063900BF0602802BBF08028038BF0902803F02070675820012052E75820012052E020795
:200659000690F06EE0FEA3E08E8212054402070690F06EE0FEA3E0FF8E828F8312043302F7
:20067900070690F07EE0F58212052E02070690F06EE0FEA3E090F07EEEF012055B020706FF
:2006990090F06DE0FF6005BF0A63800E75820012052E75820012052E805375820012052ECF
:2006B900804B90F06DE0FF6002804275820012052E75820012052E803490F06DE0FFBF208F
:2006D900028005BF2127801290F07B7407F090F07C7400F07400A3F0801390F0787407F01E
:2006F90090F0757400F07400A3F0E4A3F090F074E0FFBF02012290F072E0FEA3E0FF90F081
:2007190078E0FD7C00C3EE9DEF9C500590F078EEF00203AC90F06AE0FF20E0012290F06A64
:20073900E0FF74FE5FF090DE0EE4F090DE11E0FF30E40B90F074E4F090DE117480F0EF30E9
:20075900E20E90F074E4F090DE11E0FE74FB5EF090F074E0FEBE010BEF20E107C00712033F
:20077900ACD007EF30E03790F074E0FF6005BF022D80030205821204DF90F07BE0FF700531
:2007990090F074E4F090DE0EE4F090F074E0FF700790DE117448F02290DE117440F022C08C
:2007B90020C0E0C0F0C082C083C007C006C005C004C003C002C001C000C0D075D000C2E890
:2007D90090DE02E0FF90F06AE04FF012072D90DE06E0FF30E203120399D0D0D000D001D03B
:2007F90002D003D004D005D006D007D083D082D0F0D0E0D0203290DE0E7405F090DE11E03A
:20081900FF30E00A90F06AE0FF20E5EA80F62290DE0E7405F090DE11E0FF74014FF090F0DF
:2008390064E0FEA3E0FF90F066EEF0EFA3F090F064E4F0A3F02290F06BE0FF70012290F04B
:2008590064E0FEA3E0FF4E700E90F066E0FEA3E0FFBE4009BF000612080F02082822AF822F
:2008790090F06BE0FE700122C00712080FD00790DE2AEFF090F064E02401F0A3E03400F045
:2008990090F064E0FEA3E0FFBE4006BF00030208282290F068E0FEA3E0FF4E704490DE0E1B
:2008B9007404F090DE14E0FF20E0047582FF2290DE17E0FE7F0090DE16E0FD7C004207EC46
:2008D900420690F068EFF0EEA3F0EF4E701390DE0E7404F090DE14E0FF74FE5FF07582FFB3
:2008F9002290F068E024FFFEA3E034FFFF90F068EEF0EFA3F090DE28E0FF90F068E0FDA3FA
:20091900E0FE4D700F90DE0E7404F090DE14E0FE74FE5EF08F82221208ABAF828F06BFFF94
:200939000A90DE04E0FF20E4EE80F68E822243BE8012055B120399439A0290DE06E4F09051
:20095900DE04F090DE02F0C2E82290DE07E4F090DE09F090DE0BF0AF9A74FD5FF59A90DE51
:2009790006E4F090DE04F090DE02F0AFBE747F5FF5BE2290F074E4F090F06AF0020947AD8D
:2009990082AE83AFF0C007C006C005120930AC82D005D006D0078C03BC0A0280118D828E1A
:2009B900838FF0EB1211AEA3AD82AE8380D78D828E838FF0E40211AEAD82AE83AFF08D82B4
:2009D9008E838FF01211F2FC60188C820DBD00010EC007C006C005120877D005D006D00799
:0509F90080DC02084F44
:0712570000C20100000008C5
:0901D700E4F509F50AF50BF50C3D
:2009FE00AF82BF0500500122E5AE20E7FB8FF005F07B017C007D007E00800CEB2BFBEC33B9
:200A1E00FCED33FDEE33FED5F0F1EB4209EC420AED420BEE420C75AB1FEF2FF5AD75AC00C6
:0A0A3E0043AE0100E5AE20E7FB2205
:080173000043AE0200020A4B3A
:200A480002017422AD82AE838E0790F085EFF090F086EDF090F08774DFF090F08874AFF0D4
:200A680090F089E4F0E0FFE50D250DE50E33FD53051FEF420590F089EDF0E50D25E090F061
:200A88008AF090F08B7412F090F08C7442F07E857FF08F068ED57E857FF07F008ED4E5AE51
:200AA80020E7FB75AB1FE510C313FE53063F8EADAE0FE510C313CE13CE8EAC43D601120AAA
:200AC80048E5D1FF30E0FAE5AE54C0600280F8AFD174FE5FF5D122AF828FF005F07F017EAA
:200AE800007D007C00800CEF2FFFEE33FEED33FDEC33FCD5F0F1E5095207E50A5206E50BC1
:200B08005205E50C5204EF4E4D4C60047582012275820022AF82C007120ADFE582D0077021
:200B2800058F820209FE22AD82AE83AFF0E5140303543FFBE5112513E51235140303543FD9
:200B4800FA7C00C3EA9B401C8B82C007C006C005C003C002120B1CD002D003D005D006D036
:200B6800070B80DF85110D85120E85130F8514108D828E838FF0020A4CE4F509F50AF50B8C
:1D0B8800F50C227F058F82C0071209FED0070F8F057E00C3ED9420EE940040E9228F
:200BA500AF82C3EF648094B0401174B98FF063F08095F04006EF24D0F58222C3EF648094E4
:200BC500C1401374C68FF063F08095F04008EF24BF240AF58222C3EF648094E1401374E652
:200BE5008FF063F08095F04008EF249F240AF582227582FF22AD82AE83AFF074012DFAE4C1
:200C05003EFB8F048A828B838CF01211F2F582C007C006C005120BA5AC82D005D006D0071D
:200C25008D828E838FF01211F2F582C004120BA5AF82D004EFC454F02CF58222AD82AE83DD
:200C4500AFF074022DFAE43EFB8F048A828B838CF0C007C006C005120BFAAC82D005D006CB
:200C6500D0077B008D828E838FF0C004C003120BFAAF82D003D0048F06E42CF582EE3BF5CE
:200C85008322AD82AE83AFF074072DFDE43EFE8D828E838FF0020BFAAD82AE83AFF07403CA
:200CA5002DFDE43EFE8D828E838FF0020C41AD82AE83AFF0E52175F002A42409FBE435F0B6
:200CC500FCEB2DFDEC3EFE8D828E838FF0020BFAAD82AE83AFF01211F2FCBC3A028004752F
:200CE50082012274012DFAE43EFB8F048A828B838CF0C007C006C005120BFA858222D00501
:200D0500D006D0078D828E838FF0C007C006C005120C9DAA82AB83D005D006D0078D828EFC
:200D2500838FF0C007C006C005C003C002120C87A982D002D003D005D006D007E52224EFC4
:200D45005004758205228522218D828E838FF0C007C006C005C003C002C001120CB3D0017B
:200D6500D002D003D005D006D007E924FE500EB922004005E924DA500475820422E97011FC
:200D850074EC2B5008C3E49A74809B5004758203227523007A00A8227900740528F8E43920
:200DA500F98A037C00C3EB98EC648089F063F08095F05037EA75F002A42401FBE435F0FCA4
:200DC500EB2DFBEC3EF98F048B8289838CF0C007C006C005C002120BFAAC82D002D005D0E0
:200DE50006D007EC2523F5230A80ABE52360047582022275820022AD82AE83AFF0C007C06A
:200E050006C005120930AC82D005D006D007BC3AEC8D828E838FF0743A1211AE7C01BC2DA1
:200E2500005033C007C006C005C004120930AB82D004D005D006D0078B02BB0A0280178CCF
:200E4500030CEB2DF8E43EF98F03888289838BF0EA1211AE80C87B000CBC00010BEC2DFDC8
:200E6500EB3EFE8D828E838FF0E40211AEAD82AE83AFF074012DFAE43EFB8F048A828B839D
:200E85008CF0C007C006C005120BFA858224D005D006D0078D828E838FF0C007C006C005CA
:200EA500120C9D858225858326D005D006D0078D828E838FF0C007C006C005120C87A982D5
:200EC500D005D006D007B9000280012290F08D74FFF07900C3E995245039E904F8248DFAC6
:200EE500E434F0FB89218D828E838FF0C007C006C005C003C002C000120CB3AC82D000D06B
:200F050002D003D005D006D0078A828B83ECF0880180C1E52404248DF582E434F0F583748C
:200F2500FFF0E52530E02DAC247F008C828F83A3A37515028F1612120E858211858312E547
:200F45002524FFF513E52634FFF51490F08D75F000020B2FAC247F008C828F83A3751502A9
:200F65008F1612120E85821185831285251385261490F08E75F000020B2FE582FF24F64078
:200F8500088F0674302EF58222EF24F0400674372FF5822275822122AD82AE83AFF07401DA
:200FA5002DFAE43EFB8F04740F5527F582C007C006C005C004C003C002120F7FA982D002A7
:200FC500D003D0048A828B838CF0E91211AEE527C4540FFC740F5CF582120F7FAC82D005ED
:200FE500D006D0078D828E838FF0EC0211AEAD82AE83AFF074022DFAE43EFB8F04A828884F
:20100500278A828B838CF0C007C006C005120F9DD005D006D007AC298C278D828E838FF055
:20102500020F9DAE82AF83E52A452B70030211707D00C37410952AE4952B50047C1080029D
:20104500AC2A90F0CE743AF08C2790F0CF75F000C007C006C005C004120F9DD004D005D015
:2010650006D007EC2DFD8E028F038A288B2990F0D175F000C007C006C005C004C003C0029F
:20108500120FF3D002D003D004D0058A007900E82DFD8B028D03EA2BFD892790F0D575F03B
:2010A50000C005C004120F9DD004D005D006D0077B00C3EB9C503DEB2EF582E43FF583E031
:2010C500F52C2DFDEB2B240924CEF8E434F0F97A00852C27888289838AF0C007C006C0055E
:2010E500C004C003120F9DD003D004D005D006D0070B80BEEB2BFB240924CEFAE434F0F909
:201105007C00C3E49DFD8D278A8289838CF0C007C006C003120F9DD003740B2B24CEF582D1
:20112500E434F0F583740AF0740C2B24CEF582E434F0F583E4F090F0CE75F0001209D1D0E5
:2011450006D007C37410952AE4952B501674102EFEE43FFFE52A24F0F52AE52B34FFF52B26
:1411650002102CE4F52AF52B02102C90124A75F0800209D12A
:0D124A003A303030303030303146460A0046
:2011790043FE0E021197AFFF74FB5FF5FF43FF19C2A0C2A4D2A322D291D292D29322C29192
:15119900C292C2932243FE01D29022C290AFFE74FE5FF5FE22CB
:2000AA001201100102000020501D5C6010000102030109024300020100C03209040000015F
:2000CA0002020100052400100105240101010424020205240600010705810308000A0904A0
:2000EA000100020A0000000705040240000007058502400000040309042803470072006567
:20010A0000610074002000530063006F0074007400200047006100640067006500740073F4
:20012A000034035900410052004400200053007400690063006B0020004F006E00650020CE
:20014A000042006F006F0074006C006F0061006400650072000E0330003000300030003089
:04016A000031000060
:0601AA00E478FFF6D8FD29
:200188007907E94400601B7A019012577800759300E493F2A308B800020593D9F4DAF275C7
:0201A80093FFC3
:1B11AE0020F71130F6138883A88220F509F6A8837583002280FEF280F5F02240
:2011C9007A10E4FBFCE58225E0F582E58333F583EB33FBEC33FCEB9515F5F0EC9516400620
:0911E900FCABF0438201DADD22C7
:2001B0007800E84400600A79007593F0E4F309D8FC78FBE84400600C790190F000E4F0A380
:0401D000D8FCD9FA84
:0D017B0075812C121246E582600302016EB0
:1C11F20020F71430F6148883A88220F507E6A88375830022E280F7E49322E0220C
:20120E00C2D5E58330E70DD2D5E4C39582F582E49583F583E51630E70DB2D5E4C39515F561
:18122E0015E49516F5161211C930D50BE4C39582F582E49583F5832232
:04124600758200228B
:00000001FF
