:0600000002014B02140393
:03000B0002140BD1
:03001300021413C1
:03001B0002141BB1
:03002300021423A1
:03002B0002142B91
:0300330002009335
:03003B0002143B71
:0300430002144361
:03004B000202208E
:0300530002145341
:03005B0002145B31
:0300630002146321
:03006B0002146B11
:0300730002147301
:03007B0002147BF1
:03008300021483E1
:03008B0002148BD1
:0B009300C0E0E5087005D0E002143367
:05009E00D0E002079311
:0301B00002013E0B
:05013E0012023380FEF7
:0301A400750801DA
:0301B30053C6BF71
:0E01B600E5BE30E6FBAAC674C05AF5F07438F8
:0401C40045F0F5C647
:0901C800743F55C6FABA38F8225A
:0801D100AA82E4FBFCEA2AFA11
:0601D9001AEA60118B051B
:0701DF001DEDFB60F58C0330
:0801E6001BEBFC60F40080F843
:0101EE0022EE
:0C01EF00901400E0FABAFF0475820022B0
:0401FB0075820122E6
:0E01FF00C2AF759A0075B80075A8001201EF26
:07020D00E582700302021FED
:09021400121149750800021400E2
:02021D0080FE61
:01021F0022BC
:0302200002144B7A
:0C02230090DF48E0FABA690475820122FD
:04022F0075820022B2
:0D02330090DF4674F0F090DF47740DF0127C
:0E024000113930920D30A20A120223E58270AD
:04024E00031201FF97
:0C02520090DF48E4F01201B312113312E7
:08025E00095AD2AF121143123C
:02026600113D48
:0A02680090F00075F000120DC39035
:0E027200F00075F000120C9CE582FA600302A9
:02028000036910
:0E02820090F00075F000120C4EAB82BB000233
:02029000801CD0
:05029200BB0102802BFE
:05029700BB2202802BD8
:05029C00BB23028034C9
:0502A100BB2402803DBA
:0502A600BB250280539E
:0302AB0002035DEE
:0D02AE0090F00075F000120E3975823012CC
:0702BB00085012082880A67C
:0502C2001201FF80A104
:0A02C700120B487582301208501225
:0402D10008288093E6
:0A02D500120B52758230120850120D
:0402DF0008288085E6
:0A02E30075210090F00075F0001284
:0902ED000C7A1209CC7582301262
:0602F60008501208280266
:0202FC00026896
:0E02FE0090F00075F000120C64AB82AC8375BA
:0C030C00210090F00075F000C003C00458
:0B031800120C7AAE827D00752101906E
:0E032300F00075F000C005C006120C7AAF8223
:0E033100D006D0057800EF2DFDE83EFE758267
:0E033F000AC005C006120850D006D005D00432
:0A034D00D0038B828C838D2A8E2B47
:06035700120FEE02026825
:0A035D0075823412085012082802BD
:0203670002682A
:0C03690074302AF5821208501208280295
:0203750002681C
:0D03770090DE077421F090DE097410F09004
:06038400DE0B7404F02200
:0E038A0090DE0EE4F090DE11E0FA30E1012288
:0E03980090F078E0FA90F07FF0EA24DF500653
:0603A60090F07F7420F0CE
:0E03AC0090F0807402F090F07FE0FBBB200226
:0203BA00800BB6
:0B03BC0090F080740AF090F074E4F000
:0E03C70090F07FE0FB90F078EAC39BF08B0291
:0E03D5008A031AEB602A90F075E0FBA3E0FCAF
:0E03E300A3E0FD8B828C838DF0121191FE90B1
:0E03F100F07574012BF0E43CA3F0A3EDF09046
:0603FF00DE20EEF080D0CC
:0E04050090DE0EE4F090F080E090DE11F02228
:0C041300AA82AB838B0490F08174AAF0E5
:08041F00A37400F0A37480F047
:0E04270090F081E0FBA3E0FDA3E0FE8B828D50
:0A043500838EF0121191FF70012276
:0E043F00C00774012BF8E43DF98E078882890E
:0C044D00838FF0121191F8B504028004B6
:04045900D007803E0A
:0E045D00D0078A001AE87036BC021774022B12
:0E046B00FBE43DFD8B828D838EF0121191FB20
:0604790090F078F0800510
:05047F0090F078EFF0A1
:0E04840090F081E0FBA3E0FDA3E0FE90F07598
:09049200EBF0A3EDF0A3EEF02263
:0E049B0090F081E0FBA3E0FDA3E0FE8B828DDC
:0E04A900838EF0121191FF90F081EF2BF0E4A2
:0904B7003DA3F0A3EEF0020427BE
:0E04C00090DE0EE4F090DE16E0FA90F084F08C
:0E04CE0090F07BE0FBC39A500590F084EBF0B9
:0C04DC0090F084E0FA90F07BEBC39AF003
:0E04E8008A031AEB601F90F07CE0FBA3E0FC9F
:0E04F60090DE20E0FD8B828C83F090F07C7411
:09050400012BF0E43CA3F080DBC4
:01050D0022CB
:0E050E00AA8290F078E0FB90F07804F0EB24E5
:0A051C0079F582E434F0F583EAF08B
:0105260022B2
:0E052700AA8290F06B7401F090DE0074804A9E
:01053500F0D5
:0905360090DE00E0FA20E7F82253
:0D053F0090DE0E7405F090DE107408F09050
:0D054C00DE12E04401F090DE0E7404F09029
:0C055900DE137408F090DE157401F0222F
:0805650090F07C746CF0A374AB
:09056D00F0F090F07B7408F0122C
:0A05760004C090F07BE0FA6001225F
:0E05800090F06CE0FA30E71A90F072E0FBA306
:0D058E00E0FC4B600890F0747401F0801FD9
:07059B0090F074E4F08018F9
:0E05A20090F072E0FBA3E0FC4B600890F07458
:0505B0007402F080055B
:0505B50090F074E4F079
:0D05BA0090DE0EE4F090F074E0FB7008900D
:0705C700DE117448F080060C
:0605CE0090DE117440F004
:0805D40090F0757479F0A37436
:0C05DC00F0F0A3E4F090F078F074605AA6
:0905E800FB6009BB20030206B010
:0305F1000206E41B
:0805F40053021FBA0002800F40
:0605FC00BA0103020677BC
:06060200BA020302069992
:030608000206E403
:0C060B0090F06DE0FA6017BA0502802143
:05061700BA0602802B71
:05061C00BA080280385D
:05062100BA0902803F50
:030626000206E4E5
:0D06290075820012050E75820012050E028A
:0206360006E4D8
:0D06380090F06EE0FAA3E08A82120527021E
:0206450006E4C9
:0D06470090F06EE0FAA3E0FB8A828B831234
:0506540004130206E49E
:0A06590090F07EE0F58212050E021B
:0206630006E4AB
:0D06650090F06EE0FAA3E090F07EEAF01253
:05067200053F0206E453
:0C06770090F06DE0FA6005BA0A63800E96
:0E06830075820012050E75820012050E80535E
:0806910075820012050E804B7A
:0906990090F06DE0FA600280426D
:0E06A20075820012050E75820012050E80345E
:0A06B00090F06DE0FABA2002800518
:0506BA00BA21278012A7
:0A06BF0090F07B7407F090F07C745B
:0806C90000F0A37400F080139F
:0A06D10090F0787407F090F0757453
:0906DB0000F0A37400F0A3E4F0A8
:0906E40090F074E0FABA02012260
:0E06ED0090F072E0FAA3E0FB90F078E0FC7D64
:0D06FB0000C3EA9CEB9D500590F078EAF0FA
:0307080002038A5F
:09070B0090F06AE0FA20E00122FE
:0D07140090F06AE054FEF090DE0EE4F090EC
:0D072100DE11E0FA30E40B90F074E4F0908B
:05072E00DE117480F0F3
:0E073300EA30E20D90F074E4F090DE11E0FB8D
:0307410054FBF076
:0E07440090F074E0FBBB010BEA20E107C0025D
:0507520012038AD00231
:0E075700EA30E03790F074E0FA6005BA022D47
:0207650080030F
:0307670002056523
:0B076A001204C090F07BE0FA700590D4
:04077500F074E4F048
:0D07790090DE0EE4F090F074E0FA7007904E
:06078600DE117448F022B0
:06078C0090DE117440F044
:010792002244
:0C079300C020C0E0C0F0C082C083C002E3
:0E079F00C003C004C005C006C007C000C001F2
:0D07AD00C0D075D000C2E890DE02E0FA90E6
:0E07BA00F06AE04AF012070B90DE06E0FA301B
:0507C800E203120377BB
:0E07CD00D0D0D001D000D007D006D005D00487
:0D07DB00D003D002D083D082D0F0D0E0D087
:0207E8002032BD
:0E07EA0090DE0E7405F090DE11E0FA30E00AA9
:0A07F80090F06AE0FA20E5EA80F6CE
:0108020022D3
:0E08030090DE0E7405F090DE11E04401F090DE
:0E081100F064E0FAA3E0FB90F066EAF0A3EBDF
:09081F00F090F064E4F0A3F02273
:0808280090F06BE0FA70012270
:0E08300090F064E0FAA3E0FB4A700E90F066D0
:0B083E00E0FAA3E0FBBA4009BB000693
:060849001207EA02080399
:01084F002286
:0A085000AA8290F06BE0FB70012219
:0D085A00C0021207EAD00290DE2AEAF090F8
:0E086700F064E02401F0A3E03400F090F064AF
:0E087500E0FAA3E0FBBA4006BB000302080352
:010883002252
:0E08840090F068E0FAA3E0FB4A704290DE0EAE
:0E0892007404F090DE14E0FA20E0047582FF9A
:0108A0002235
:0E08A10090DE17E0FB7A0090DE16E0FC7D0092
:0E08AF004202ED420390F068EAF0A3EBF0EA9B
:0E08BD004B701190DE0E7404F090DE14E054C7
:0608CB00FEF07582FF2221
:0D08D10090F068E024FFFAA3E034FFFB90F4
:0D08DE00F068EAF0A3EBF090DE28E0FA905D
:0E08EB00F068E0FBA3E0FC4B700E90DE0E7494
:0A08F90004F090DE14E0FB54FEF062
:030903008A8222C3
:0A090600120884AA828A03BAFF0ACD
:0A09100090DE04E0FA20E4EE80F629
:03091A008B8222AB
:0D091D0043BE8012053F120377439A0290FB
:0E092A00DE06E4F090DE04F090DE02F0C2E89B
:01093800229C
:0E09390090DE07E4F090DE09F090DE0BF05344
:0E0947009AFD90DE06E4F090DE04F090DE02F1
:05095500F053BE7F22FB
:0A095A0090F074E4F090F06AF002EF
:02096400091D6B
:06096600AA82AB83ACF095
:0E096C00C002C003C004120906AD82D004D040
:0A097A0003D0028D06BD0A028011B1
:0E0984008A828B838CF0EE12114FA3AA82ABF5
:030992008380D788
:0A0995008A828B838CF0E402114F7C
:06099F00AA82AB83ACF05C
:0E09A5008A828B838CF0121191FD60188D8276
:0509B3000ABA00010B6F
:0E09B800C002C003C004120850D004D003D007
:0309C6000280DCD0
:0309C900020828F9
:0711F60000C2010000000827
:0601A700E4F509F50AF57C
:0301AD000BF50C43
:0509CC00AA82BA05003B
:0309D100500122B0
:0E09D400E5AE20E7FB8AF005F07B017C007D9C
:0509E200007E00800C06
:0C09E700EB2BFBEC33FCED33FDEE33FE9C
:0A09F300D5F0F1EB4209EC420AEDE9
:0A09FD00420BEE420C75AB1FEA2A14
:090A0700F5AD75AC0043AE010031
:060A1000E5AE20E7FB2229
:0101430000BB
:0701440043AE0200020A199C
:030A160002014496
:010A190022BA
:0E0A1A00AA82AB838B0490F085ECF090F086FE
:0E0A2800EAF090F08774DFF090F08874AFF081
:0A0A360090F089E4F0E0FAE50D25E8
:0A0A40000DE50E33FCFB741F5B4252
:0B0A4A000290F089EAF0E50D25E09035
:0A0A5500F08AF090F08B7412F0901C
:080A5F00F08C7442F07A857BF3
:060A6700F08BD57A857BBF
:050A6D00F07B008AD4BB
:0C0A7200E5AE20E7FB75AB1FE510C313D9
:0A0A7E00FA53023F8AADAA0FE510FB
:0D0A8800C313CA13CA8AAC43D601120A1662
:050A9500E5D130E0FB9B
:080A9A00E5AE54C0600280F8D3
:040AA20053D1FE220C
:0E0AA600AA828AF005F07A017B007C007D00B8
:020AB400800CB4
:0C0AB600EA2AFAEB33FBEC33FCED33FDD5
:0A0AC200D5F0F1E5095202E50A52F1
:0A0ACC0003E50B5204E50C5205EAA5
:090AD6004B4C4D600475820122B5
:040ADF0075820022FA
:0E0AE300AA82C002120AA6E582D00270058A1D
:040AF100820209CCA8
:010AF50022DE
:0C0AF600AA82AB83ACF0E5140303543F6C
:060B0200FDE5112513E5DD
:0A0B08001235140303543FFE7F0072
:0E0B1200C3EE9D401C8D82C002C003C004C013
:0E0B200005C006120AE3D006D005D004D003AB
:050B2E00D0020D80DF84
:040B330085110D8596
:030B3700120E8516
:030B3A00130F8511
:090B3D0014108A828B838CF002F3
:020B46000A1A89
:060B4800E4F509F50AF5D1
:040B4E000BF50C2275
:020B52007A0522
:0E0B54008A037C00C3EB9420EC9400500C8AC2
:0B0B620082C0021209CCD0020A80E71A
:010B6D002265
:0E0B6E00AA82C3EA648094B0401174B98AF080
:0D0B7C0063F08095F04006EA24D0F5822257
:0E0B8900C3EA648094C1401174C68AF063F020
:0B0B97008095F04006EA24C9F5822298
:0E0BA200C3EA648094E1401174E68AF063F0C7
:0B0BB0008095F04006EA24A9F582229F
:040BBB007582FF221E
:0E0BBF00AA82AB83ACF074012AFDE43BFE8CED
:0E0BCD00078D828E838FF0121191F582C00287
:0E0BDB00C003C004120B6EAD82D004D003D054
:0E0BE900028A828B838CF0121191F582C00576
:0E0BF700120B6EAA82D005EAC454F02DF582CE
:010C050022CC
:0E0C0600AA82AB83ACF074022AFDE43BFE8CA4
:0E0C1400078D828E838FF0C002C003C00412D1
:0E0C22000BBFAD82D004D003D0027E008A82C8
:0E0C30008B838CF0C005C006120BBFAA82D0C9
:0E0C3E0006D0058A037A00EA2DF582EB3EF51A
:020C4C00832201
:0E0C4E00AA82AB83ACF074072AFAE43BFB8A5F
:080C5C00828B838CF0020BBFB8
:0E0C6400AA82AB83ACF074032AFAE43BFB8A4D
:080C7200828B838CF0020C065A
:0C0C7A00AA82AB83ACF0E52175F002A467
:0E0C86002409FDE435F0FEED2AFAEE3BFB8A70
:080C9400828B838CF0020BBF80
:0E0C9C00AA82AB83ACF0121191FDBD3A02802A
:010CAA000445
:040CAB00758201222B
:0E0CAF0074012AFDE43BFE8C078D828E838F3C
:0C0CBD00F0C002C003C004120BBF85820F
:0C0CC90022D004D003D0028A828B838CDE
:0E0CD500F0C002C003C004120C64AE82AF83F4
:0E0CE300D004D003D0028A828B838CF0C00232
:0E0CF100C003C004C006C007120C4EA882D07B
:0C0CFF0007D006D004D003D002E5222468
:070D0B00EF50047582052280
:0A0D12008522218A828B838CF0C0B9
:0E0D1C0002C003C004C006C007C000120C7A5B
:0E0D2A00D000D007D006D004D003D002E824B9
:060D3800FE500EB822007F
:070D3E004005E824DA50042F
:040D4500758204228D
:0E0D4900E8701174EC2F5008C3E49E74809F74
:020D5700500446
:040D5900758203227A
:050D5D007523007F007A
:0C0D6200A8227900740528F8E439F98F04
:0E0D6E00067D00C3EE98ED648089F063F0808E
:0E0D7C0095F05037EF75F002A42401FDE43528
:0E0D8A00F0FEED2AFDEE3BFE8C008D828E8386
:0E0D980088F0C002C003C004C007120BBFAD3C
:0C0DA60082D007D004D003D002ED25233A
:050DB200F5230F80ABEA
:080DB700E523600475820222AD
:040DBF007582002217
:060DC300AA82AB83ACF034
:0E0DC900C002C003C004120906AD82D004D0DF
:0E0DD70003D002BD3AEC8A828B838CF0743A12
:050DE50012114F7D0119
:030DEA00BD2D001C
:0E0DED005033C002C003C004C005120906AE98
:0E0DFB0082D005D004D003D0028E07BE0A02BB
:020E0900801750
:0E0E0B008D060DEE2AFEE43BF88C018E8288E7
:090E19008389F0EF12114F80C82B
:070E22007E000DBD00010E72
:0E0E2900ED2AFAEE3BFB8A828B838CF0E4020A
:020E3700114F59
:0E0E3900AA82AB83ACF074012AFDE43BFE8C70
:0E0E4700078D828E838FF0C002C003C004129C
:0C0E55000BBF858224D004D003D0028A99
:0E0E6100828B838CF0C002C003C004120C64AC
:0A0E6F00858225858326D004D00378
:0E0E7900D0028A828B838CF0C002C003C004BA
:0E0E8700120C4EA882D004D003D002B8000294
:020E95008001DA
:010E97002238
:080E980090F08D74FFF078006A
:0A0EA000C3E895245039E804F92452
:070EAA008DFEE434F0FF8827
:0C0EB100218A828B838CF0C002C003C039
:0E0EBD0004C006C007C001120C7AAD82D0013D
:0E0ECB00D007D006D004D003D0028E828F83D1
:060ED900EDF0890080C16C
:090EDF00E52404248DF582E434BD
:0A0EE800F0F58374FFF0E52530E01B
:0C0EF2002EAD247A008D828A83A3A375A4
:060EFE001502E4F51612D6
:070F040011AD858211858308
:060F0B0012E52524FFF5AC
:060F110013E52634FFF594
:080F17001490F08D75F000024A
:020F1F000AF6D0
:0A0F2100AD247A008D828A83A37547
:060F2B001502E4F51612A8
:070F310011AD8582118583DB
:030F3800128525FA
:030F3B00138526F5
:080F3E001490F08E75F0000222
:020F46000AF6A9
:0D0F4800E582FA24F6400674302AF5822274
:0B0F5500EA24F0400674372AF58222DF
:040F60007582212253
:0E0F6400AA82AB83ACF074012AFDE43BFE8C44
:0C0F720007740F5527F582C002C003C0B1
:0E0F7E0004C005C006C007120F48A882D007A5
:0E0F8C00D006D0058D828E838FF0E812114FB3
:0C0F9A00E527C4540FFD740F5DF58212B2
:0E0FA6000F48AD82D004D003D0028A828B8324
:060FB4008CF0ED02114F6C
:0E0FBA00AA82AB83ACF074022AFDE43BFE8CED
:0A0FC80007A82888278D828E838FEA
:0E0FD200F0C002C003C004120F64D004D003AC
:0A0FE000D0028529278A828B838CBA
:040FEA00F0020F649E
:040FEE00AA82AB83A5
:070FF200E52A452B70030204
:020FF900112ABB
:0A0FFB007C00C37410952AE4952BC6
:0610050050047D10800282
:02100B00AD2A0C
:09100D0090F0CE743AF08D2790AA
:0E101600F0CF75F000C002C003C004C0051288
:0E1024000F64D005D004D003D002ED2CFC8A5E
:08103200068B078E288F299020
:0E103A00F0D175F000C002C003C004C005C0B4
:0E10480006C007120FBAD007D006D005D0049C
:0C1056008E00E82C2FFC75270090F0D5D0
:0E10620075F000C004C005120F64D005D00464
:06107000D003D0027E0057
:0E107600C3EE9D503BEE2AF582E43BF583E08D
:0A108400F52C2CFCEE2E24D7F8E426
:07108E0034F0F97F00852C0E
:0C10950027888289838FF0C002C003C04E
:0E10A10004C005C006120F64D006D005D004AE
:0710AF00D003D0020E80C047
:0A10B600EE2EFE24D7FDE434F0FF17
:0C10C0007800C3E49CF5278D828F8388A4
:0E10CC00F0C002C003C006120F64D006740B01
:0A10DA002E24CEF582E434F0F583F5
:0C10E400740AF0740C2E24CEF582E43463
:0C10F000F0F583E4F090F0CE75F00012F3
:0C10FC00099FD003D002C37410952AE4B1
:0C110800952B501674102AFAE43BFBE50E
:061114002A24F0F52AE593
:06111A002B34FFF52B024F
:021120000FF2CC
:06112200E4F52AF52B02A2
:021128000FF2C4
:09112A009011E975F08002099FA3
:0D11E9003A303030303030303146460A00A8
:0611330043FE02C29122FE
:0411390053FEFB2244
:03113D00D291222A
:03114000C2912237
:0611430043FE01D29022E0
:06114900C29053FEFE22DD
:0E00AA001201100102000020501D4A601000DB
:0E00B8000102030109024300020100C03209E7
:0E00C6000400000102020100052400100105E3
:0E00D400240101010424020205240600010794
:0E00E20005810308000A09040100020A00005B
:0E00F0000007050402400000070585024000DD
:0E00FE0000040309040C035200660043006175
:0E010C00007400200344006F006E007300209A
:0E011A000042006F006F0074006C006F006107
:0E012800006400650072000E033000300030ED
:08013600003000300031000030
:06017A00E478FFF6D8FD59
:080158007907E94400601B7AFD
:05016000019011F6788A
:030165000075938F
:0A01680000E493F2A308B8000205BA
:0801720093D9F4DAF27593FF52
:0E114F0020F71030F6118883A88220F507F6ED
:05115D00A8837583006A
:01116200226A
:03116300F280F720
:02116600F02275
:051168007A10E4FBFC1D
:0E116D00E58225E0F582E58333F583EB33FB65
:0A117B00EC33FCEB9515F5F0EC9554
:09118500164006FCABF0438201A8
:03118E00DADD2285
:080180007800E84400600A79F0
:030188000075936C
:06018B00F0E4F309D8FCCA
:0801910078FBE84400600C79E2
:0B0199000190F000E4F0A3D8FCD9FABC
:03014B0075812C8F
:0A014E001211E5E582600302013E94
:0E11910020F71430F6148883A88220F507E6B4
:06119F00A8837583002205
:0311A500E280F7EE
:0311A800E49322AB
:0211AB00E02240
:0E11AD00C2D5E58330E70DD2D5E4C39582F5B7
:0611BB0082E49583F58338
:0A11C100E51630E70DB2D5E4C39542
:0511CB0015F515E49587
:0311D00016F516FB
:0E11D30012116830D50BE4C39582F582E495C5
:0311E10083F58310
:0111E40022E8
:0411E50075820022ED
:00000001FF
