:0600000002017B02140363
:03000B0002140BD1
:03001300021413C1
:03001B0002141BB1
:03002300021423A1
:03002B0002142B91
:0300330002009335
:03003B0002143B71
:0300430002144361
:03004B0002024D61
:0300530002145341
:03005B0002145B31
:0300630002146321
:03006B0002146B11
:0300730002147301
:03007B0002147BF1
:03008300021483E1
:03008B0002148BD1
:10009300C0E0E5087005D0E0021433D0E00207C5E4
:0301E00002016EAB
:05016E0012026080FE9A
:0301D400750801AA
:2001E300AFC674BF5FF5C6E5BE30E6FBAFC674C05F4438F5C6743F55C6FFBF38F822AF8238
:20020300E4FEFDEF2FFF1FEF60118E041CECFE60F58D061EEEFD60F40080F822901400E065
:20022300FFBFFF047582002275820122C2AF759A0075B80075A80012021FE582600B1211D5
:20024300C775080002140080FE2202144B90DF48E0FFBF6904758201227582002290DF4696
:2002630074F0F090DF47740DF012118C12119430A20A120250E582700312022F90DF48E4A2
:20028300F01201E3121186120999D2AF1211C11211B390F00075F000120E0990F00075F0EA
:2002A30000120CE2E582FF600302039890F00075F000120C94AE82BE0002801CBE01028071
:2002C3002BBE2202802BBE23028034BE2402803DBE2502805302038C90F00075F000120EDD
:2002E3007F75823012088412085C80A612022F80A1120B8E75823012088412085C809312AC
:200303000B9875823012088412085C808575210090F00075F000120CC0120A0B758230123E
:20032300088412085C02029590F00075F000120CAAAD82AE8375210090F00075F000C006D1
:20034300C005120CC0AB827C0075210190F00075F000C004C003120CC0AA82D003D0048A10
:20036300017A00E92CFCEA3BFB75820AC004C003120884D003D004D005D0068D828E838CAA
:200383002A8B2B12103502029575823412088412085C02029574302FF58212088412085C54
:0303A300020295BE
:2003A60090DE077421F090DE097410F090DE0B7404F02290DE0EE4F090DE11E0FF30E1018F
:2003C6002290F078E0FF90F07FF0EF24DF500690F07F7420F090F0807402F090F07FE0FE21
:2003E600BE2002800B90F080740AF090F074E4F090F078EFC39EF090F07FE0FF8F061FEE9E
:20040600602A90F075E0FCA3E0FDA3E0FE8C828D838EF0121215FB90F07574012CF0E43D03
:20042600A3F0EEA3F090DE20EBF080D090DE0EE4F090F080E090DE11F022AE82AF838F0532
:2004460090F08174AAF07400A3F07480A3F090F081E0FBA3E0FCA3E0FF8B828C838FF0126F
:200466001215FA700122C00274012BF8E43CF98F02888289838AF0121215F8B505028004BD
:20048600D002803ED0028E011EE97036BD021774022BFBE43CFC8B828C838FF0121215FB5B
:2004A60090F078F0800590F078EAF090F081E0FBA3E0FCA3E0FF90F075EBF0ECA3F0EFA339
:2004C600F02290F081E0FBA3E0FCA3E0FF8B828C838FF0121215FA90F0812BF0E43CA3F08A
:2004E600EFA3F002045490DE0EE4F090DE16E0FF90F084F090F07BE0FEC39F500590F084DF
:20050600EEF090F084E0FF90F07BEEC39FF08F061FEE602090F07CE0FDA3E0FE90DE20E0EF
:20052600FC8D828E83F090F07CE02401F0A3E03400F080DA22AF8290F078E0FE04F0EE2488
:2005460079F582E434F0F583EFF022AF8290F06B7401F090DE00034FF090DE00E0FF20E79F
:20056600F82290DE0E7405F090DE107408F090DE12E0FF74014FF090DE0E7404F090DE1314
:2005860023F090DE157401F02290F07C746CF074F0A3F090F07B7408F01204EC90F07BE031
:2005A600FF60012290F06CE0FF30E71A90F072E0FEA3E0FF4E600890F0747401F0801F9027
:2005C600F074E4F0801890F072E0FEA3E0FF4E600890F0747402F0800590F074E4F090DE28
:2005E6000EE4F090F074E0FF700890DE117448F0800690DE117440F090F0757479F074F0BE
:20060600A3F0E4A3F090F078F090F06CE0FF74605FFE6009BE20030206DF02071353071F20
:20062600BF0002800FBF01030206A6BF02030206C802071390F06DE0FF6017BF0502802199
:20064600BF0602802BBF08028038BF0902803F02071375820012053B75820012053B020761
:200666001390F06EE0FEA3E08E8212055102071390F06EE0FEA3E0FF8E828F8312044002B6
:20068600071390F07EE0F58212053B02071390F06EE0FEA3E090F07EEEF0120568020713B1
:2006A60090F06DE0FF6005BF0A63800E75820012053B75820012053B805375820012053B9B
:2006C600804B90F06DE0FF6002804275820012053B75820012053B803490F06DE0FFBF2068
:2006E600028005BF2127801290F07B7407F090F07C7400F07400A3F0801390F0787407F011
:2007060090F0757400F07400A3F0E4A3F090F074E0FFBF02012290F072E0FEA3E0FF90F073
:2007260078E0FD7C00C3EE9DEF9C500590F078EEF00203B990F06AE0FF20E0012290F06A4A
:20074600E0FF74FE5FF090DE0EE4F090DE11E0FF30E40B90F074E4F090DE117480F0EF30DC
:20076600E20E90F074E4F090DE11E0FE74FB5EF090F074E0FEBE010BEF20E107C007120332
:20078600B9D007EF30E03790F074E0FF6005BF022D800302058F1204EC90F07BE0FF7005FD
:2007A60090F074E4F090DE0EE4F090F074E0FF700790DE117448F02290DE117440F022C07F
:2007C60020C0E0C0F0C082C083C007C006C005C004C003C002C001C000C0D075D000C2E883
:2007E60090DE02E0FF90F06AE04FF012073A90DE06E0FF30E2031203A6D0D0D000D001D014
:2008060002D003D004D005D006D007D083D082D0F0D0E0D0203290DE0E7405F090DE11E02C
:20082600FF30E00A90F06AE0FF20E5EA80F62290DE0E7405F090DE11E0FF74014FF090F0D2
:2008460064E0FEA3E0FF90F066EEF0EFA3F090F064E4F0A3F02290F06BE0FF70012290F03E
:2008660064E0FEA3E0FF4E700E90F066E0FEA3E0FFBE4009BF000612081C02083522AF8208
:2008860090F06BE0FE700122C00712081CD00790DE2AEFF090F064E02401F0A3E03400F02B
:2008A60090F064E0FEA3E0FFBE4006BF00030208352290F068E0FEA3E0FF4E704490DE0E01
:2008C6007404F090DE14E0FF20E0047582FF2290DE17E0FE7F0090DE16E0FD7C004207EC39
:2008E600420690F068EFF0EEA3F0EF4E701390DE0E7404F090DE14E0FF74FE5FF07582FFA6
:200906002290F068E024FFFEA3E034FFFF90F068EEF0EFA3F090DE28E0FF90F068E0FDA3EC
:20092600E0FE4D700F90DE0E7404F090DE14E0FE74FE5EF08F82221208B8AF828F06BFFF7A
:200946000A90DE04E0FF20E4EE80F68E822243BE801205681203A6439A0290DE06E4F0902A
:20096600DE04F090DE02F0C2E82290DE07E4F090DE09F090DE0BF0AF9A74FD5FF59A90DE44
:2009860006E4F090DE04F090DE02F0AFBE747F5FF5BE2290F074E4F090F06AF0020954AD73
:2009A60082AE83AFF0C007C006C00512093DAC82D005D006D0078C03BC0A0280118D828E00
:2009C600838FF0EB1211D1A3AD82AE8380D78D828E838FF0E40211D1AD82AE83AFF08D8261
:2009E6008E838FF0121215FC60188C820DBD00010EC007C006C005120884D005D006D0075B
:050A060080DC02085C29
:07127A0000C20100000008A2
:0901D700E4F509F50AF50BF50C3D
:200A0B00AF82BF0500500122E5AE20E7FB8FF005F07B017C007D007E00800CEB2BFBEC33AB
:200A2B00FCED33FDEE33FED5F0F1EB4209EC420AED420BEE420C75AB1FEF2FF5AD75AC00B9
:0A0A4B0043AE0100E5AE20E7FB22F8
:080173000043AE0200020A582D
:200A550002017422AD82AE838E0790F085EFF090F086EDF090F08774DFF090F08874AFF0C7
:200A750090F089E4F0E0FFE50D250DE50E33FD53051FEF420590F089EDF0E50D25E090F054
:200A95008AF090F08B7412F090F08C7442F07E857FF08F068ED57E857FF07F008ED4E5AE44
:200AB50020E7FB75AB1FE510C313FE53063F8EADAE0FE510C313CE13CE8EAC43D601120A9D
:200AD50055E5D1FF30E0FAE5AE54C0600280F8AFD174FE5FF5D122AF828FF005F07F017E90
:200AF500007D007C00800CEF2FFFEE33FEED33FDEC33FCD5F0F1E5095207E50A5206E50BB4
:200B15005205E50C5204EF4E4D4C60047582012275820022AF82C007120AECE582D0077007
:200B3500058F82020A0B22AD82AE83AFF0E5140303543FFBE5112513E51235140303543FBE
:200B5500FA7C00C3EA9B401C8B82C007C006C005C003C002120B29D002D003D005D006D01C
:200B7500070B80DF85110D85120E85130F8514108D828E838FF0020A59E4F509F50AF50B72
:1D0B9500F50C227F058F82C007120A0BD0070F8F057E00C3ED9420EE940040E92274
:200BB200AF82C3EF648094B0401174B98FF063F08095F04006EF24D0F58222C3EF648094D7
:200BD200C1401374C68FF063F08095F04008EF24BF240AF58222C3EF648094E1401374E645
:200BF2008FF063F08095F04008EF249F240AF582227582FF22AD82AE83AFF074012DFAE4B4
:200C12003EFB8F048A828B838CF0121215F582C007C006C005120BB2AC82D005D006D007DF
:200C32008D828E838FF0121215F582C004120BB2AF82D004EFC454F02CF58222AD82AE839F
:200C5200AFF074022DFAE43EFB8F048A828B838CF0C007C006C005120C07AC82D005D006B0
:200C7200D0077B008D828E838FF0C004C003120C07AF82D003D0048F06E42CF582EE3BF5B3
:200C92008322AD82AE83AFF074072DFDE43EFE8D828E838FF0020C07AD82AE83AFF07403AF
:200CB2002DFDE43EFE8D828E838FF0020C4EAD82AE83AFF0E52175F002A42409FBE435F09C
:200CD200FCEB2DFDEC3EFE8D828E838FF0020C07AD82AE83AFF0121215FCBC3A02800475F0
:200CF20082012274012DFAE43EFB8F048A828B838CF0C007C006C005120C07858222D005E6
:200D1200D006D0078D828E838FF0C007C006C005120CAAAA82AB83D005D006D0078D828EE2
:200D3200838FF0C007C006C005C003C002120C94A982D002D003D005D006D007E52224EFAA
:200D52005004758205228522218D828E838FF0C007C006C005C003C002C001120CC0D00161
:200D7200D002D003D005D006D007E924FE500EB922004005E924DA500475820422E97011EF
:200D920074EC2B5008C3E49A74809B5004758203227523007A00A8227900740528F8E43913
:200DB200F98A037C00C3EB98EC648089F063F08095F05037EA75F002A42401FBE435F0FC97
:200DD200EB2DFBEC3EF98F048B8289838CF0C007C006C005C002120C07AC82D002D005D0C5
:200DF20006D007EC2523F5230A80ABE52360047582022275820022AD82AE83AFF0C007C05D
:200E120006C00512093DAC82D005D006D007BC3AEC8D828E838FF0743A1211D17C01BC2D64
:200E3200005033C007C006C005C00412093DAB82D004D005D006D0078B02BB0A0280178CB5
:200E5200030CEB2DF8E43EF98F03888289838BF0EA1211D180C87B000CBC00010BEC2DFD98
:200E7200EB3EFE8D828E838FF0E40211D1AD82AE83AFF074012DFAE43EFB8F048A828B836D
:200E92008CF0C007C006C005120C07858224D005D006D0078D828E838FF0C007C006C005AF
:200EB200120CAA858225858326D005D006D0078D828E838FF0C007C006C005120C94A982AE
:200ED200D005D006D007B9000280012290F08D74FFF07900C3E995245039E904F8248DFAB9
:200EF200E434F0FB89218D828E838FF0C007C006C005C003C002C000120CC0AC82D000D051
:200F120002D003D005D006D0078A828B83ECF0880180C1E52404248DF582E434F0F583747F
:200F3200FFF0E52530E02DAC247F008C828F83A3A37515028F16121231858211858312E517
:200F52002524FFF513E52634FFF51490F08D75F000020B3CAC247F008C828F83A37515028F
:200F72008F1612123185821185831285251385261490F08E75F000020B3CE582FF24F6403B
:200F9200088F0674302EF58222EF24F0400674372FF5822275822122AD82AE83AFF07401CD
:200FB2002DFAE43EFB8F04740F5527F582C007C006C005C004C003C002120F8CA982D0028D
:200FD200D003D0048A828B838CF0E91211D1E527C4540FFC740F5CF582120F8CAC82D005B0
:200FF200D006D0078D828E838FF0EC0211D1AD82AE83AFF074022DFAE43EFB8F04A828881F
:20101200278A828B838CF0C007C006C005120FAAD005D006D007AC298C278D828E838FF03B
:20103200020FAAAE82AF83E52A452B700302117D7D00C37410952AE4952B50047C10800276
:20105200AC2A90F0CE743AF08C2790F0CF75F000C007C006C005C004120FAAD004D005D0FB
:2010720006D007EC2DFD8E028F038A288B2990F0D175F000C007C006C005C004C003C00292
:20109200121000D002D003D004D0058A007900E82DFD8B028D03EA2BFD892790F0D575F020
:2010B20000C005C004120FAAD004D005D006D0077B00C3EB9C503DEB2EF582E43FF583E017
:2010D200F52C2DFDEB2B240924CEF8E434F0F97A00852C27888289838AF0C007C006C00551
:2010F200C004C003120FAAD003D004D005D006D0070B80BEEB2BFB240924CEFAE434F0F9EF
:201112007C00C3E49DFD8D278A8289838CF0C007C006C003120FAAD003740B2B24CEF582B7
:20113200E434F0F583740AF0740C2B24CEF582E434F0F583E4F090F0CE75F0001209DED0CB
:2011520006D007C37410952AE4952B501674102EFEE43FFFE52A24F0F52AE52B34FFF52B19
:14117200021039E4F52AF52B02103990126D75F0800209DED3
:0D126D003A303030303030303146460A0023
:2011860043FE0E0211BAAFFF74FB5FF5FF22AFFD74FE5FF5FDAF8F74FE5FF58FAFF774DFA0
:2011A6005FF5F743FF19C2A0C2A4D2A322D291D292D29322C291C292C2932243FE01D29014
:0B11C60022C290AFFE74FE5FF5FE2217
:2000AA001201100102000020501D5C6010000102030109024300020100C03209040000015F
:2000CA0002020100052400100105240101010424020205240600010705810308000A0904A0
:2000EA000100020A0000000705040240000007058502400000040309042803470072006567
:20010A0000610074002000530063006F0074007400200047006100640067006500740073F4
:20012A000034035900410052004400200053007400690063006B0020004F006E00650020CE
:20014A000042006F006F0074006C006F0061006400650072000E0330003000300030003089
:04016A000031000060
:0601AA00E478FFF6D8FD29
:200188007907E94400601B7A0190127A7800759300E493F2A308B800020593D9F4DAF275A4
:0201A80093FFC3
:1B11D10020F71130F6138883A88220F509F6A8837583002280FEF280F5F0221D
:2011EC007A10E4FBFCE58225E0F582E58333F583EB33FBEC33FCEB9515F5F0EC95164006FD
:09120C00FCABF0438201DADD22A3
:2001B0007800E84400600A79007593F0E4F309D8FC78FBE84400600C790190F000E4F0A380
:0401D000D8FCD9FA84
:0D017B0075812C121269E582600302016E8D
:1C12150020F71430F6148883A88220F507E6A88375830022E280F7E49322E022E8
:20123100C2D5E58330E70DD2D5E4C39582F582E49583F583E51630E70DB2D5E4C39515F53E
:1812510015E49516F5161211EC30D50BE4C39582F582E49583F58322EC
:041269007582002268
:00000001FF
